:040000008131212900
:100008007E14803120007F08F4008B1A0B1D932882
:10001800F701F601F501F8010830780203184728BE
:100028007B08FB0A303E860087012330873D0108A4
:100038007902031CF5177B08FB0A303E860087010E
:100048002330873D01087902031CF6177B08FB0A59
:10005800303E860087012330873D01087902031C62
:10006800F7170730780203183F280310F50C031020
:10007800F60C0310F70C0130F0007008F807083090
:100088007802031C142827008C130C138C120C12F2
:100098008C110C118C100D10750921008C0076093B
:1000A8008F0077099000702827000D147A28270000
:1000B8008C147A2827000C157A2827008C157A28A2
:1000C80027000C167A2827008C167A2827000C1788
:1000D8007A2827008C177A287A08840008300402C6
:1000E80003187A2890310435803E82000130F000F0
:1000F8007008FA0709307A020318FA01C1307B0246
:10010800031C8F28FB010130F0007008F90710303C
:1001180079020318F9017530200095000B112100B0
:10012800111CDB282000111CDB2817082100EB011B
:10013800EB07200016082100EA01EA076A09F00027
:100148006B09F100F00A0319F10A7008003EF20089
:100158008030713DF3007208200096007308970004
:100168000130F00070082100EF073C306F02031CDB
:10017800D928EF010130F0007008ED073C306D021E
:10018800031CD928ED010130F0007008FC077C0839
:100198000C3A031DD1280130FD060D307C02031CEA
:1001A800D9280130F0007008FC002000111021004F
:1001B800911CE8282000911CE82801302200AE0795
:1001C8000030AF3D200091108B190B1C1C29270013
:1001D800161AF92808290430F00070082100F728B9
:1001E8000330F0007008EC00082921006C08003A80
:1001F8000319F428023A03190829013A0319EF28C8
:10020800073A0319F42808292700961D1429210004
:100218006C08043A031D14290230F0007008EC0041
:100228002700961C192920000D08270096010B109D
:1002380074082000FF007E10090081312329303026
:10024800840023308500C030FE000030FF00963166
:10025800EF268131FD01F901FA01FB01FC012100C2
:10026800EA01EB01EC01ED01EE01EF012030840021
:10027800013085001430FE000030FF009631EF2673
:100288008131A0308400013085004030FE0000300C
:10029800FF009631EF267E10200089313D2921008C
:1002A800AE002E082000EE006E082100BB002000E2
:1002B8006D08EE006E082100BC0000302000B00080
:1002C8008030B1004330B20021003C088600013084
:1002D8008700010897311B27813120002808B300C7
:1002E8002908B4002A08B5008C31C42481312000C3
:1002F80030082100B800200031082100B900200092
:1003080032082100BA0000302000B0008030B1006F
:100318004330B20021003C0A860001308700010802
:1003280097311B27813120002808B3002908B40021
:100338002A08B5008C31C4248131200030082100FE
:10034800C300200031082100C40020003208210029
:10035800C50000302000B0008030B1004330B2004A
:1003680021003C08023E86000130870001089731D1
:100378001B27813120002808B3002908B4002A0867
:10038800B5008C31C4248131200030082100C90017
:10039800200031082100CA00200032082100CB00CB
:1003A800450844044304031DDF294908C0004A08DE
:1003B800C1004B08FA2B00302000BE00C030BF003F
:1003C8004030C000210038082000C1002100390851
:1003D8002000C20021003A082000C3008D316D259D
:1003E800813120003E082100B80020003F0821008C
:1003F800B900200040082100BA0038082000E400B5
:10040800210039082000E50021003A082000E60014
:100418008B31B8238131200064082100A00020001E
:1004280065082100A100200066082100A20020081C
:100438002000CE00210021082000CF002100220842
:100448002000D0008C313D24813120004F0821004C
:10045800AD01AD0720004E082100AC01AC073808FB
:100468002000B100210039082000B20021003A081C
:100478002000B30021002D082000A901A9072100B0
:100488002C082000A801A8079731542781312000A3
:100498002808AE002908AF002A08B00088310120DA
:1004A800813120002E08B4002F08B5003008B600AE
:1004B80086318F268131200031082100A9002000D3
:1004C80032082100AA00200033082100AB004908A7
:1004D8002000BE0021004A082000BF0021004B0870
:1004E8002000C0000030B1008030B2003F30B300BF
:1004F800210043082000AE00210044082000AF007E
:10050800210045082000B0008831012081312000F9
:100518002E08B4002F08B5003008B60086318F26A3
:10052800813120003108C1003208C2003308C300FD
:100538008D316D25813120003E082100C600200044
:100548003F082100C700200040082100C8000030F3
:100558002000B1008030B2003F30B30021004308D2
:100568002000C100210044082000C20021004508E5
:100578002000C300210029082000BE0021002A080D
:100588002000BF0021002B082000C0008D316D2500
:10059800813120003E08AE003F08AF004008B0009F
:1005A80088310120813120002E08B4002F08B500C1
:1005B8003008B60086318F268131200031082100AD
:1005C800A300200032082100A400200033082100E5
:1005D800A50049082000BE0021004A082000BF00ED
:1005E80021004B082000C000210023082000C10082
:1005F800210024082000C200210025082000C30093
:100608008D316D25813120003E082100B200200087
:100618003F082100B300200040082100B400290849
:100628002000AE0021002A082000AF0021002B087E
:100638002000B00088310120813120002E08B4004C
:100648002F08B5003008B6000030B1008030B20085
:100658003F30B30086318F26813120003108C10038
:100668003208C2003308C300210043082000BE003E
:10067800210044082000BF00210045082000C000D8
:100688008D316D25813120003E082100A600200013
:100698003F082100A700200040082100A8004908C1
:1006A8002000BE0021004A082000BF0021004B089E
:1006B8002000C0000030B1008030B2003F30B300ED
:1006C800210026082000AE00210027082000AF00E6
:1006D800210028082000B000883101208131200045
:1006E8002E08B4002F08B5003008B60086318F26D2
:1006F800813120003108C1003208C2003308C3002C
:100708008D316D25813120003E082100B500200083
:100718003F082100B600200040082100B700082C3F
:100728004908AF004A08B0004B08B1003508BD00C1
:100738003608BE003708AB2B3208AF003308B000CC
:100748003408B1004908BD004A08BE004B08BF0084
:100758004608C0004708C1004808F32B4608AF0008
:100768004708B0004808B1004908BD004A08BE0063
:100778004B08BF003508C0003608C1003708F32B06
:100788004608AF004708B0004808B1003208BD006D
:100798003308BE003408DB2B3508AF003608B0003C
:1007A8003708B1004608BD004708BE004808BF002A
:1007B8004908C0004A08C1004B08F32B4908AF009C
:1007C8004A08B0004B08B1004608BD004708BE0003
:1007D8004808BF003208C0003308C1003408C2000E
:1007E800172C0030C0000030C1000030C2004008A3
:1007F800BD004108BE004208BF003D08AF003E08EA
:10080800B0003F08B100172C2D08003A03190D2C31
:10081800F52B2C088400063004020318F52B9031C0
:1008280004359C3E82002F082000C10021003008BA
:100838002000C200210031082000C3000030BE00A3
:100848007F30BF004330C0008D316D2581312000DD
:100858003E08CE003F08CF004008D0008C313D2430
:10086800813120004E08EE0021003B08860001304F
:10087800870020006E08810021003D082000C1008B
:1008880021003E082000C20021003F082000C300CC
:100898000030BE007F30BF004330C0008D316D2571
:1008A800813120003E08CE003F08CF004008D0002C
:1008B8008C313D24813120004E08EE0021003B0A96
:1008C80086000130870020006E0881002100400862
:1008D8002000C100210041082000C2002100420878
:1008E8002000C3000030BE007F30BF004330C0008E
:1008F8008D316D25813120003E08CE003F08CF00A4
:100908004008D0008C313D2420004E08EE00210024
:100918003B08023E86000130870020006E088100F7
:1009280008002000C901CA01C401C501C101C10AEA
:100938007C08BA003A08C20021006D082000BA00FD
:100948003A08C3008B162200AE01AF0120009A01BD
:100958001C15273022002F02113003192E0203180C
:10096800862E20000D19CE2C0A30AC000030AD00C8
:100978008A312522843120000D1DBF2C0A30AC009D
:100988000030AD008A3125228431FF302000C407B1
:10099800FF30E52C8D19E72C0A30AC000030AD0093
:1009A8008A312522843120008D1DD72C0A30AC00D5
:1009B8000030AD008A312522843101302000C4077F
:1009C8000030C53DFF2C0D1A012D0A30AC00003057
:1009D800AD008A312522843120000D1EF02C0A300A
:1009E800AC000030AD008A3125228431013020006E
:1009F800C9070030CA3DC101C10A41080319752E53
:100A08004F2D4208BA00BB013A08C7003B08C8008E
:100A18004408C7074508C83DC81F162D1730C7002A
:100A28000030C8004808803ABA0080303A02031DF6
:100A38001F2D18304702031C242D2000C701C801B0
:100A480020004708BA003A08C2005C2D4308BA00E3
:100A5800BB013A08C7003B08C8004408C707450857
:100A6800C83DC81F3B2D3B30C7000030C8004808B0
:100A7800803ABA0080303A02031D442D3C304702C8
:100A8800031C492D2000C701C80120004708BA00EF
:100A98003A08C3005C2D4A08003A0319542D5C2D0E
:100AA8004908003A0319052D013A03192A2D5C2D2E
:100AB8009731092784310A302000A6000030A700AA
:100AC8004808A901A9074708A801A8078931D12121
:100AD800843120002708BE01BE072608BD01BD07D6
:100AE8000A30B3000030B4004808B601B60747081A
:100AF800B501B5078831F520843120003408C001DC
:100B0800C0073308BF01BF07C6013E08803A803CD2
:100B1800031D902D3D0846020318F22D08302000D1
:100B280046020318BF2D4608BA003A08A000A101E2
:100B3800A2010F30BB003B08A3004908BC000130EC
:100B4800BC35FF3E031DA42D3C35893185218431F8
:100B580020004608BA003A08A000A101A2010F30FF
:100B6800BB003B08A3004908BC000130BC35FF3E70
:100B7800031DBA2DE72D07302000BA003A08A0005F
:100B88000F30BB003B08A100A201A3014908BC002B
:100B98000130BC35FF3E031DCD2D3C358931852103
:100BA800843107302000BA003A08A0000F30BB009B
:100BB8003B08A100A201A3014908BC000130BC35D3
:100BC800FF3E031DE32D3C35013E893185218431EB
:100BD80001302000BA003A08C607892D2000C60156
:100BE8004008803A803C031DFB2D3F08460203184D
:100BF8005F2E08302000460203182B2E4608BA0044
:100C08003A08A000A101A2010F30BB003B08A300D5
:100C18004908BC000130BC35FF3E031D0F2E3C3592
:100C2800023E89318521843120004608BA003A08FD
:100C3800A000A101A2010F30BB003B08A300490896
:100C4800BC000130BC35FF3E031D262E542E073054
:100C58002000BA003A08A0000F30BB003B08A100F2
:100C6800A201A3014908BC000130BC35FF3E031DA9
:100C7800392E3C35023E89318521843107302000E8
:100C8800BA003A08A0000F30BB003B08A100A2013F
:100C9800A3014908BC000130BC35FF3E031D502E9E
:100CA8003C35033E89318521843101302000BA006A
:100CB8003A08C607F42D20004A08003A0319652EA1
:100CC8006D2E4908003A03196D2E013A03196D2E4D
:100CD8006D2E2000C401C5012200AE01AF01200025
:100CE800C10100304A02023003194902031CAD2C2D
:100CF8004208BA003A08FC004308BA003A08210042
:100D0800ED00EF018B1220001C112200AE01AF0193
:100D180020009A01080020003108B7003208B80006
:100D28003308B9000310380D390DBA003A08BD0070
:100D38003408B7003508B8003608B9000310380D74
:100D4800390DBA003A08BC003D080319B72E3C0813
:100D58003D020318BE2E3D03FF3A3C07B700193089
:100D68003702031CBE2E3408B1003508B20036081D
:100D7800B30008003C08031908003D083C020318AA
:100D8800CD2E3C03FF3A3D07B70019303702031850
:100D980008000630B7003708BB00B31BBB17B61BEB
:100DA8003B17B217FF30B105FF30B2050030B3056D
:100DB800B517FF30B405FF30B5050030B6053C085F
:100DC8003D020318092F0130B435B50DB60D890B56
:100DD800E82E0130BC023C083D060319042F0130FF
:100DE800BB023B0807390319042FE72E0130B3363D
:100DF800B20CB10C890BFB2E0130B7003708BD07C8
:100E08003D083C0603192E2FFA2E3D083C02031814
:100E18002E2F0130B135B20DB30D890B0E2F0130D5
:100E2800BD023C083D0603192A2F0130BB023B08CE
:100E3800073903192A2F0D2F0130B636B50CB40C1B
:100E4800890B212F0130B7003708BC073D083C0645
:100E5800031D202FBB1F402FFF30B106FF30B20605
:100E6800FF30B3060130B107003003180130B20774
:100E7800003003180130B3073B1F522FFF30B40670
:100E8800FF30B506FF30B6060130B407003003184E
:100E98000130B507003003180130B607BB0131082F
:100EA800B4073208B53D3308B63DB61F6D2FFF3085
:100EB800B406FF30B506FF30B6060130B40700307F
:100EC80003180130B507003003180130B607BB011D
:100ED800BB0A3408A0003508A1003608A2003D0866
:100EE800B7003708A3003B08B8003808A4008A31C7
:100EF800D42220002008B1002108B2002208B30043
:100F0800080007302000A0002008A800A80803193E
:100F1800C72FA901083029020318C22FFF3028075C
:100F2800A000A0302007A1002908A2000230A235A5
:100F3800FF3E031D9B2F22352107A30023088600AF
:100F4800013087000108A4002908A5000330A53551
:100F5800890BAB2FA0302507A60028082607A70075
:100F68002708860001308700240881000130A0008E
:100F78002008A90708302902031C922F0130A80273
:100F8800A808031D8D2FAA0108302A02031808009B
:100F98002A08203E8600013087000108A0002A08A0
:100FA800A1000230A135FF3E031DD62F2135A03EFA
:100FB800860001308700200881000130A000200849
:100FC800AA07C82F2000B1003108AD002D08A000E5
:100FD8002A08AE002E08A1002B08AF002F08A20097
:100FE8002C08B0003008A3002908013EFF3A013E52
:080FF800083E89318521080043
:10100200200030082F042E04031908008030B00697
:1010120008002000220821042004031D17282308A9
:10102200860087010030C03FC13F080022087F3997
:10103200A400A501A435A50D230886008701240874
:10104200C03F2508C13F210D210D0139A400A50192
:101052002308860087012408810441312508810480
:10106200230886008701823081074131FF30813DAC
:101072007F31220880393F38A200A11308002000E6
:10108200A21F57282009A6002109A7002209A800AB
:10109200A60A0319A70A0319A80A00302607A00006
:1010A2000030273DA1008030283DA200A51F6D28F9
:1010B2002309A6002409A7002509A800A60A0319E6
:1010C200A70A0319A80A00302607A3000030273D0B
:1010D200A4008030283DA5008030A2068030A506FD
:1010E20025082202031D080024082102031D08000E
:1010F2002308200208002100E801E70197310927AF
:1011020088318B1620001C1521006C08033A031D40
:10111200AA28643021006902031C97288731852799
:1011220088319731762788312100E9016908E50085
:10113200E6016508CC006608CD008E312126883193
:101142001E302100E5006508E9072200AE01AF016B
:10115200852820001C119A018B1227008C130C1376
:101162008C120C128C110C118C100D100800200026
:10117200E3018E30E0006008E200DF1FCD28DC09C9
:10118200DD09DE09DF09DC0A0319DD0A0319DE0ABB
:101192000319DF0AE301E30AFF305F050319DD28C3
:1011A2000130DF36DE0CDD0CDC0C890BD22801307D
:1011B200E0006008E207CD285C08A0005D08A100FD
:1011C2005E08A2006208E0006008A3006308E10074
:1011D2006108A4008A31D42220002008DC00210802
:1011E200DD002208DE0008002000B901B61F002938
:1011F200B509B609B50A0319B60AB901B90AB41F85
:101202000729B309B409B30A0319B40A3408330429
:1012120003192E29B801B80AB41B19290130B335B4
:10122200B40D890B10290130B7003708B8070D2912
:1012320034083602031D1F2933083502031C2529F1
:101242003308B5023408B63B0130B436B30C890B0F
:1012520026290130B802031D192939080319362934
:10126200B509B609B50A0319B60A3608B401B407B6
:101272003508B301B30708008B3135238931003AB1
:10128200031D42298B1779295A298B1122008D16A9
:101292009631E926893184319524893103305B29DD
:1012A2008B1122008D169631E926893188317C20F6
:1012B200893104302000EF006F082100EC00792909
:1012C20022008D128B1227008C130C138C120C121D
:1012D2008C110C118C100D10210090018F018C01CA
:1012E20069309900270096010B108B1563000000EE
:1012F20021006C0884000630040203187929903119
:101302000435903E820079292000A600A801A70199
:1013120020082702031896291830A4002408A807D9
:101322000130A4002408A7078929A701260827025B
:101332000318A4290330A4002408A8070130A4003C
:101342002408A70797292808303EA400A5012330C6
:10135200A53D240886002508870021088100013068
:10136200A4002408A8072808303EA400A5012330C1
:10137200A53D240886002508870022088100013047
:10138200A4002408A8072808303EA400A5012330A1
:10139200A53D24088600250887002308810008004F
:1013A2002000AC01A71FDC29A609A709A60A031978
:1013B200A70AAC01AC0AA91FE729A809A909A80A2A
:1013C2000319A90A0130AA002A08AC06AD01AE0130
:1013D200270826040319162AAB01AB0AA71BFB290F
:1013E2000130A635A70D890BF2290130AA002A087F
:1013F200AB07EF290130AD35AE0D890BFC2927086B
:101402002902031D062A26082802031C0D2A260883
:10141200A8022708A93B2D140130A736A60C890B78
:101422000E2A0130AB02031DFB292C0803191E2AC8
:10143200AD09AE09AD0A0319AE0A2E08A701A70726
:101442002D08A601A607080020002C08A0002D08E0
:10145200A100A201A3010030A7000030A6001F30A6
:10146200A5004030A40097319C278A312000230830
:10147200B2002208B1002108B0002008AF005630A7
:10148200AF07FF30B03DFF30B13DFF30B23D320813
:10149200803AAE000030803A2E02031D5A2A0030F4
:1014A2003102031D5A2A00303002031D5A2AC43069
:1014B2002F02031C08003208803AAE000030803A46
:1014C2002E02031D6E2A00303102031D6E2A0030E7
:1014D2003002031D6E2A01302F02031C0800000097
:1014E200D9302000AF07FF30B03DFF30B13DFF30B3
:1014F200B23D5C2A2100EE08031D872A013020003C
:10150200A0000030A1009631FB268A3122002B0870
:101512002000A30022002A082000A200220029089D
:101522002000A100220028082000A0004130A700CE
:10153200C630A6004E30A5006D30A40097319C271E
:101542008A313930200020072200A80030302000E4
:10155200213D2200A90000302000223D2200AA00E5
:1015620000302000233D2200AB0028082000AE00FE
:10157200220029082000AF0022002A082000B00023
:1015820022002B082000B1001030B200B137B00C9D
:10159200AF0CAE0CB20BC72AFF302E05AC007F3069
:1015A2002F05AD000800200023080319DD2A2208B8
:1015B20021042004031DEE2A0030A0000030A10007
:1015C2000030A20008000130A5002508A307013061
:1015D200A236A10CA00C890BE92AFE3022050319C0
:1015E200072BE42A0130A5002508A3070130A00734
:1015F200003003180130A107003003180130A207A0
:101602000130A236A10CA00C890B022BFF3022055F
:101612000319142BF32A0130A3020130A035A10DC6
:10162200A20D890B0F2BA11F0C2B23181E2BFF3091
:10163200A0057F30A105FF30A2050310A30C2308EB
:10164200A500A601A7011030A535A60DA70D890B8F
:10165200252B2508A0042608A1042708A204240893
:1016620003190800A2170800F030210099001A1F80
:10167200382B8C302000980021009A1F3D2B20002F
:101682009601970111102100111401302000AC00C5
:101692000030AD008A3125228B31200018140B173F
:1016A2002200B201B10128008D018C0123009001BA
:1016B2008C0122008C018F019001FF3021008C00EF
:1016C200FF308F00FF30900027000D108C100C119E
:1016D2008C110C128C120C138C1326000D108C1012
:1016E2000C118C110C128C120C138C13F901FB01CE
:1016F200FA012200B001973109278B312200B30190
:101702000A30210095007530200095000B118B16D0
:1017120021008D1424008D142700941495142600A2
:101722000D168D1527008D1102302200970003300F
:1017320021009E0030309D000D158D150D161C30B8
:101742002700950096010B108B15033020009C009A
:101752007D309B0091102100911402302000C100C5
:1017620041082100EC009731CC270030080020000E
:101772006408A0006508A1006608A2006B30E700BB
:101782006708A30088310A208B312000EC1FEA2B66
:101792006408A0006508A1006608A2000030A3004A
:1017A2000030A4000030A500883140208B3103189E
:1017B200E22B00302000E4008030E500BF30E6007C
:1017C200080000302000E4000030E5000030E600B0
:1017D200080000306C02153003196B020318080070
:1017E2006408CE006508CF006608D0008C313D2425
:1017F2008B3120005108DF005008DE004F08DD0069
:101802004E08DC008831B8208B3120005C08E800EB
:101812005D08E9005E08EA006408A0006508A1000E
:101822006608A2006808A3006908A4006A08A50067
:10183200883140208B310318352C00302000B10054
:101842008030B200BF30B3006808B4006908B50048
:101852006A08B60086318F2620003108E40032087B
:10186200E5003308E600080020006808E400690883
:10187200E5006A08E600080020004E08D2004F0882
:10188200D3005008D4000310530D540DD500550851
:10189200DB00DB08031D562C0030D1000030D000E5
:1018A2000030CF000030CE0008004E08D2004F08B2
:1018B200D3005008D4001730D436D30CD20C890B85
:1018C2005D2C5208D5005508D600CF17FF30CE0543
:1018D200FF30CF050030D0054E08D7004F08D800A2
:1018E2005008D900DA018E30DB02DB1F942C5B0832
:1018F200803A8F3E0318862C0030D1000030D00091
:101902000030CF000030CE0008000130DA36D90CAA
:10191200D80CD70C890B872C0130D2005208DB0778
:101922000319AD2C862C18305B02031CAA2C003044
:10193200D1000030D0000030CF000030CE000800CF
:101942000130D735D80DD90DDA0D890BA22C013013
:10195200DB02DB08031DA12C56080319BB2CD70997
:10196200D809D909DA09D70A0319D80A0319D90AF1
:101972000319DA0A5A08D1005908D0005808CF00D2
:101982005708CE00080020003308B6003408B7001C
:101992003508B8000310370D380DB9003908BE00FC
:1019A200BE08031DDB2C0030B0000030B100003057
:1019B200B20008003008B6003108B7003208B8009B
:1019C2000310370D380DB9003908BF00BF08031DD9
:1019D200F12C0030B0000030B1000030B20008003D
:1019E2000030BB000030BC000030BD0089303F0732
:1019F200B6003608BE023308B6003408B700350810
:101A0200B8001030B836B70CB60C890B032D360867
:101A1200B9003908BF003008B6003108B7003208F3
:101A2200B8001030B836B70CB60C890B132D360837
:101A3200B9003908BF068030B6003608BF05B417B2
:101A4200FF30B305FF30B4050030B505B117FF30E4
:101A5200B005FF30B1050030B2051830B6003608C7
:101A6200BA000130BB35BC0DBD0D890B332D3208D8
:101A72003502031D422D31083402031D422D300868
:101A82003302031C4B2D3008B3023108B43B320839
:101A9200B53B3B140130B335B40DB50D890B4C2D5C
:101AA2000130BA02031D322D3B08A0003C08A10000
:101AB2003D08A2003E08B6003608A3003F08B70062
:101AC2003708A4008A31D42220002008B00021085F
:101AD200B1002208B200080020003E08C4003F08FE
:101AE200C5004008C6000310450D460DC700470853
:101AF200C800C808031D842D0030BE000030BF009E
:101B02000030C00008004108C4004208C500430874
:101B1200C6000310450D460DC7004708CD00CD088D
:101B2200031D9A2D0030BE000030BF000030C000FF
:101B320008004D087B3EC4004408C8073E08C400A4
:101B42003F08C5004008C6001030C636C50CC40C9C
:101B5200890BA62D4408C7004708CD004108C400E0
:101B62004208C5004308C6001030C636C50CC40C76
:101B7200890BB62D4408C7004708CD068030C40043
:101B82004408CD05BF17C217FF30C105FF30C2059B
:101B92000030C3050030C9000030CA000030CB005D
:101BA2000730C4004408CC003E1CDD2D4108C907A3
:101BB2004208CA3D4308CB3D0130C036BF0CBE0CC3
:101BC200890BDE2D0130C135C20DC30D890BE42D09
:101BD2000130CC02031DD52D0930C4004408CC00CD
:101BE2003E1CF92D4108C9074208CA3D4308CB3DB6
:101BF2000130C036BF0CBE0C890BFA2D0130CB363A
:101C0200CA0CC90C890B002E0130CC02031DF12D28
:101C12004908A0004A08A1004B08A2004808C400D5
:101C22004408A3004D08C5004508A4008A31D42207
:101C320020002008BE002108BF002208C0000800C2
:101C420007302100CE004E082200B900B90803195E
:101C52004F2FBA0108303A0203184A2F39082100DF
:101C6200CE00CF01CE35CF0DCE35CF0DCE35CF0D37
:101C72000030D0009030D1004E085007D2004F08FB
:101C8200513DD30022003A08210052078400530834
:101C92000318530A85000008D40054082200BB0030
:101CA200FF302100CE004E082200BC00390821007E
:101CB200CE00CF01CE35CF0DCE35CF0DCE35CF0DE7
:101CC2004030D0009030D1004E085007D2004F086B
:101CD200513DD30022003A082100520784005308E4
:101CE2000318530A85000008D400D501D409D50988
:101CF200D40A0319D50A64302000A6000030A700D8
:101D020021004C09D6004D09D700D60A0319D70A7B
:101D12005608643E2000A00000302100573D2000FC
:101D2200A10022003A082100D8000330D835890BDF
:101D3200972EA0305807D9002200390821005907F0
:101D4200DA005A088600013087000108DB00DC0156
:101D52005B082000A20021005C082000A30097314C
:101D620036278E31200020082100DD0020002108C6
:101D72002100DE00FF30220039072100DF00A03001
:101D82005F07E00022003A082100E1000230E1355D
:101D9200FF3E031DC82E61356007E200620886001F
:101DA200013087000108E300E40163082000A0007D
:101DB200210064082000A10021004D082000A30199
:101DC200A30721004C082000A201A2079731362761
:101DD2008E312000200821005D072000A800210884
:101DE20021005E3D2000A9008931D1218E312100E0
:101DF2005408200026072200B600210055082000C2
:101E0200273D2200B700B71B0D2F3708B501B507D4
:101E12003608B401B4070F2FB401B501340821000C
:101E2200CE004E082200BD003B302100CE004E08FD
:101E32002000ED003E30813153218E3122003908DD
:101E42002100CE004E082000A90022003E082100F9
:101E5200CF004F082000AA0022003F082100D00036
:101E620050082000AB00220040082100D100510898
:101E72002000AC0022003A088731E6278E3101307B
:101E82002100CE004E082200BA0708303A02031C95
:101E92002F2E0130B902B908031D2A2EB8010830CD
:101EA2003802031808003808003E840090300318F6
:101EB200013E850000082100CE004E082200BB0032
:101EC200FF302100CE004E082200BC00643020000A
:101ED200A6000030A70021004C09CE004D09CF001A
:101EE200CE0A0319CF0A4E08643E2000A00000303B
:101EF20021004F3D2000A100220038082100D0001F
:101F02000230D035FF3E031D822F5035A03E8600A1
:101F1200013087000108D100D20151082000A2003F
:101F2200210052082000A300973136278E3120006D
:101F320020082100D300200021082100D400220023
:101F42003808203E86000130870001082100D500B4
:101F5200D60155082000A000210056082000A1004B
:101F620021004D082000A301A30721004C082000F6
:101F7200A201A207973136278E31200020082100C6
:101F820053072000A80021082100543D2000A90089
:101F92008931D1218E31200026082100D70057082F
:101FA2002200BD003B302100CE004E082000ED0093
:101FB2003E30813153218E312000A90122003E089A
:101FC2002100CE004E082000AA0022003F08210076
:101FD200CF004F082000AB00220040082100D000B3
:101FE20050082000AC00220038088731E6278E31E5
:101FF20001302100CE004E082200B807502F0134D4
:102002000434073409340934083404340134013403
:1020120003340534073409340734033401340134FA
:1020220003340534063407340634033401340134EE
:1020320002340434053405340534023401340134E5
:1020420002340434043404340434023401340034D9
:1020520001340234033403340234013400340034D2
:1020620000340134023402340134003400340034C8
:10207200003400340134013400340034003420349C
:10208200003400340034003400340034203440344E
:1020920000340034003400340034003440346034FE
:1020A200203400340034003400342034603480346E
:1020B2004034203400340034203440348034A0349E
:1020C200603440342034203440346034A034C0348E
:1020D200803460344034403460348034C034FF345F
:1020E200A0348034603460348034A034FF34FF3450
:1020F200C034A03480348034A034C034FF34803102
:10210200582880315B2880315E28803161288031F7
:1021120064288031672880316A2880316D288931AE
:1021220079298931452989314629893151298931CC
:102132006129893179298331942B8331A02B833111
:0E214200B22B8331C42B8331D02B8331E22B9F
:102DD200F030210099001A1B0800EC2E64008001DB
:102DE20001310130FE020030FF3B7F087E040319EF
:102DF2000034F02E200020082200A8002000210824
:102E02002200A900AA01AB012100EE01EE0A08008E
:102E12002000A101C0302102031808002108303E21
:102E2200860087012330873D81010130A000200800
:102E3200A1070B2F2000AF002F08AB00AC01AD01A2
:102E42002B08A0002C08A1002D08A2008E30AE0095
:102E52002E08A300A4018A31D42220002008A80051
:102E62002108A9002208AA0008002000A401A50147
:102E7200201C3F2F2208A4072308A53D0130A235BC
:102E8200A30D890B402F0130A136A00C890B452FD1
:102E920021082004031D392F2508A101A1072408B8
:102EA200A001A00708002000AD01A91F5F2FA809FB
:102EB200A909A80A0319A90AAD01AD0A2808A000A8
:102EC2002908A100A2018E30AB002B08A3002D0817
:102ED200AC002C08A4008A31D42220002008A800CB
:102EE2002108A9002208AA0008002000BB0108301E
:102EF2003B02031808003F30B3000030B4008A31AF
:102F02007B22973120002D08B601B6072C08B501A7
:102F1200B5078831F520973120003308BA003B0805
:102F2200203E8600013087003A0881000130BA0055
:102F32003A08BB07782F00302000AB000030AA000F
:102F42000030A9000030A800201CAF2F2408A807D9
:102F52002508A93D2608AA3D2708AB3D0130A43526
:102F6200A50DA60DA70D890BB02F0130A336A20C1B
:102F7200A10CA00C890BB72F2308220421042004E2
:102F8200031DA52F2B08A3002A08A2002908A100CF
:102F92002808A000080039302000A0003030A1002D
:102FA2009631FB2697319731762797312000BF0162
:102FB20008303F0203180800C0010830400203181D
:102FC200FB2F4008BC000330BC35890BE52FA03035
:102FD2003C07BD003F083D07BE003E0886000130A9
:102FE200870081010130BC003C08C0070830400264
:0E2FF200031CE22F0130BC003C08BF07D92FA2
:020000040001F9
:04000E00E4F9FFDC36
:00000001FF
